{
  "transactions": [
    {
      "hash": "0xc98171aad670ff0ad2201d52b7fcce80811a7582d24f6dfc4efd1a8ca0465a10",
      "transactionType": "CALL",
      "contractName": null,
      "contractAddress": "0x4efba02681d0f794a450bdc0380e5e8c0b6caf47",
      "function": "mintNft(string)",
      "arguments": [
        "ipfs://QmcKW3JoqyyAcajRvqhjeXFYSJZE5FyPHAVjaRpR5bDLxH"
      ],
      "transaction": {
        "from": "0xdd87147058fc74f05a32831d0a939e063642832b",
        "to": "0x4efba02681d0f794a450bdc0380e5e8c0b6caf47",
        "gas": "0x38de9",
        "value": "0x0",
        "input": "0xda86f4a900000000000000000000000000000000000000000000000000000000000000200000000000000000000000000000000000000000000000000000000000000035697066733a2f2f516d634b57334a6f7179794163616a527671686a65584659534a5a45354679504841566a615270523562444c78480000000000000000000000",
        "nonce": "0xe",
        "chainId": "0xaa36a7"
      },
      "additionalContracts": [],
      "isFixedGasLimit": false
    }
  ],
  "receipts": [
    {
      "status": "0x1",
      "cumulativeGasUsed": "0xa8926b",
      "logs": [
        {
          "address": "0x4efba02681d0f794a450bdc0380e5e8c0b6caf47",
          "topics": [
            "0xddf252ad1be2c89b69c2b068fc378daa952ba7f163c4a11628f55a4df523b3ef",
            "0x0000000000000000000000000000000000000000000000000000000000000000",
            "0x000000000000000000000000dd87147058fc74f05a32831d0a939e063642832b",
            "0x0000000000000000000000000000000000000000000000000000000000000000"
          ],
          "data": "0x",
          "blockHash": "0xfd38fc567869cd3b000f17df49bdaac363708f33fffff056d7512ceed9a1f2aa",
          "blockNumber": "0x72fce7",
          "transactionHash": "0xc98171aad670ff0ad2201d52b7fcce80811a7582d24f6dfc4efd1a8ca0465a10",
          "transactionIndex": "0x6c",
          "logIndex": "0x7a",
          "removed": false
        }
      ],
      "logsBloom": "0x00000000000000000000000000000000000000000000000000000000000040000000000000000000000000000000000400000040000000000000002000000000000000000000000000000008000000000000000000000000000000000000000000000000020000000000000000000800000000000000000000000010000000000000000000000000000000000000000000000000000000000000002000000000000000000000000000000000000000000000000000000000000000002000000000000002000000000000000000000000000000000000000000000000000020000000000000000000000000000000000000000000000000000000000000000000",
      "type": "0x2",
      "transactionHash": "0xc98171aad670ff0ad2201d52b7fcce80811a7582d24f6dfc4efd1a8ca0465a10",
      "transactionIndex": "0x6c",
      "blockHash": "0xfd38fc567869cd3b000f17df49bdaac363708f33fffff056d7512ceed9a1f2aa",
      "blockNumber": "0x72fce7",
      "gasUsed": "0x26e2a",
      "effectiveGasPrice": "0x37530e96",
      "from": "0xdd87147058fc74f05a32831d0a939e063642832b",
      "to": "0x4efba02681d0f794a450bdc0380e5e8c0b6caf47",
      "contractAddress": null
    }
  ],
  "libraries": [],
  "pending": [],
  "returns": {},
  "timestamp": 1737414409,
  "chain": 11155111,
  "commit": null
}