{
  "transactions": [
    {
      "hash": "0x482115ff30e61fa304ef46db131b32bf3813605f48ad811ca8a9844ea6a44422",
      "transactionType": "CALL",
      "contractName": null,
      "contractAddress": "0x0e816cf67c247258b9c25b53ff7d32f69542bd86",
      "function": "mintNft(string)",
      "arguments": [
        "ipfs://QmcKW3JoqyyAcajRvqhjeXFYSJZE5FyPHAVjaRpR5bDLxH"
      ],
      "transaction": {
        "from": "0xdd87147058fc74f05a32831d0a939e063642832b",
        "to": "0x0e816cf67c247258b9c25b53ff7d32f69542bd86",
        "gas": "0x38de9",
        "value": "0x0",
        "input": "0xda86f4a900000000000000000000000000000000000000000000000000000000000000200000000000000000000000000000000000000000000000000000000000000035697066733a2f2f516d634b57334a6f7179794163616a527671686a65584659534a5a45354679504841566a615270523562444c78480000000000000000000000",
        "nonce": "0xc",
        "chainId": "0xaa36a7"
      },
      "additionalContracts": [],
      "isFixedGasLimit": false
    }
  ],
  "receipts": [
    {
      "status": "0x1",
      "cumulativeGasUsed": "0xd0165d",
      "logs": [
        {
          "address": "0x0e816cf67c247258b9c25b53ff7d32f69542bd86",
          "topics": [
            "0xddf252ad1be2c89b69c2b068fc378daa952ba7f163c4a11628f55a4df523b3ef",
            "0x0000000000000000000000000000000000000000000000000000000000000000",
            "0x000000000000000000000000dd87147058fc74f05a32831d0a939e063642832b",
            "0x0000000000000000000000000000000000000000000000000000000000000000"
          ],
          "data": "0x",
          "blockHash": "0x4281d0fb6857a47a8699411699bdf3156108a6d640adf69474ee8eb5f8de9318",
          "blockNumber": "0x72fc97",
          "transactionHash": "0x482115ff30e61fa304ef46db131b32bf3813605f48ad811ca8a9844ea6a44422",
          "transactionIndex": "0x80",
          "logIndex": "0xea",
          "removed": false
        }
      ],
      "logsBloom": "0x00000000000000000000000000000000000000000000000000000000000000000000000000000000000000000000000400000000000000000000002000000000000000000000000000000008000000000000000000000000000000000000000000000000020000000000000000000800000000000000000000000010000000000000000000000000000000000000000000000000000000000000002000000040400000000000000000000000000000000000000000010000000000000000000000000002000000000000000000000000000000000000000000000000000020000000000000000000000000000000000000000000000000000000000000000000",
      "type": "0x2",
      "transactionHash": "0x482115ff30e61fa304ef46db131b32bf3813605f48ad811ca8a9844ea6a44422",
      "transactionIndex": "0x80",
      "blockHash": "0x4281d0fb6857a47a8699411699bdf3156108a6d640adf69474ee8eb5f8de9318",
      "blockNumber": "0x72fc97",
      "gasUsed": "0x26e2a",
      "effectiveGasPrice": "0x3444b9f6",
      "from": "0xdd87147058fc74f05a32831d0a939e063642832b",
      "to": "0x0e816cf67c247258b9c25b53ff7d32f69542bd86",
      "contractAddress": null
    }
  ],
  "libraries": [],
  "pending": [],
  "returns": {},
  "timestamp": 1737413449,
  "chain": 11155111,
  "commit": null
}